{
  "contractName": "BcareContract",
  "abi": [
    {
      "inputs": [],
      "stateMutability": "nonpayable",
      "type": "constructor"
    },
    {
      "inputs": [
        {
          "internalType": "address",
          "name": "",
          "type": "address"
        },
        {
          "internalType": "uint256",
          "name": "",
          "type": "uint256"
        }
      ],
      "name": "appointments",
      "outputs": [
        {
          "internalType": "uint256",
          "name": "appointmentDate",
          "type": "uint256"
        },
        {
          "internalType": "string",
          "name": "medRecommendations",
          "type": "string"
        }
      ],
      "stateMutability": "view",
      "type": "function",
      "constant": true
    },
    {
      "inputs": [],
      "name": "owner",
      "outputs": [
        {
          "internalType": "address",
          "name": "",
          "type": "address"
        }
      ],
      "stateMutability": "view",
      "type": "function",
      "constant": true
    },
    {
      "inputs": [
        {
          "internalType": "address",
          "name": "",
          "type": "address"
        }
      ],
      "name": "patientInfo",
      "outputs": [
        {
          "internalType": "string",
          "name": "cancerType",
          "type": "string"
        },
        {
          "internalType": "uint256",
          "name": "cancerStage",
          "type": "uint256"
        },
        {
          "internalType": "uint256",
          "name": "age",
          "type": "uint256"
        },
        {
          "internalType": "uint256",
          "name": "weight",
          "type": "uint256"
        },
        {
          "internalType": "uint256",
          "name": "height",
          "type": "uint256"
        },
        {
          "internalType": "string",
          "name": "gender",
          "type": "string"
        }
      ],
      "stateMutability": "view",
      "type": "function",
      "constant": true
    },
    {
      "inputs": [
        {
          "internalType": "address",
          "name": "patientAddress",
          "type": "address"
        },
        {
          "internalType": "string",
          "name": "_cancerType",
          "type": "string"
        },
        {
          "internalType": "uint256",
          "name": "_cancerStage",
          "type": "uint256"
        },
        {
          "internalType": "uint256",
          "name": "_age",
          "type": "uint256"
        },
        {
          "internalType": "uint256",
          "name": "_weight",
          "type": "uint256"
        },
        {
          "internalType": "uint256",
          "name": "_height",
          "type": "uint256"
        },
        {
          "internalType": "string",
          "name": "_gender",
          "type": "string"
        }
      ],
      "name": "addOrUpdatePatientInfo",
      "outputs": [],
      "stateMutability": "nonpayable",
      "type": "function"
    },
    {
      "inputs": [
        {
          "internalType": "address",
          "name": "patientAddress",
          "type": "address"
        },
        {
          "internalType": "uint256",
          "name": "_appointmentDate",
          "type": "uint256"
        },
        {
          "internalType": "string[]",
          "name": "_prescribedMedicines",
          "type": "string[]"
        },
        {
          "internalType": "string[]",
          "name": "_processes",
          "type": "string[]"
        },
        {
          "internalType": "string[]",
          "name": "_examsAndAnalysis",
          "type": "string[]"
        },
        {
          "internalType": "string",
          "name": "_medRecommendations",
          "type": "string"
        }
      ],
      "name": "scheduleAppointment",
      "outputs": [],
      "stateMutability": "nonpayable",
      "type": "function"
    },
    {
      "inputs": [
        {
          "internalType": "address",
          "name": "patientAddress",
          "type": "address"
        }
      ],
      "name": "getAppointments",
      "outputs": [
        {
          "components": [
            {
              "internalType": "uint256",
              "name": "appointmentDate",
              "type": "uint256"
            },
            {
              "internalType": "string[]",
              "name": "prescribedMedicines",
              "type": "string[]"
            },
            {
              "internalType": "string[]",
              "name": "processes",
              "type": "string[]"
            },
            {
              "internalType": "string[]",
              "name": "examsAndAnalysis",
              "type": "string[]"
            },
            {
              "internalType": "string",
              "name": "medRecommendations",
              "type": "string"
            }
          ],
          "internalType": "struct BcareContract.Appointment[]",
          "name": "",
          "type": "tuple[]"
        }
      ],
      "stateMutability": "view",
      "type": "function",
      "constant": true
    }
  ],
  "bytecode": "0x608060405234801561001057600080fd5b50336000806101000a81548173ffffffffffffffffffffffffffffffffffffffff021916908373ffffffffffffffffffffffffffffffffffffffff160217905550611553806100606000396000f3fe608060405234801561001057600080fd5b50600436106100625760003560e01c806302911c39146100675780636142d2dc146100985780637b75cfb6146100cd5780638da5cb5b146100fd578063d8c7b91c1461011b578063e4822af214610137575b600080fd5b610081600480360381019061007c9190610de1565b610153565b60405161008f929190611274565b60405180910390f35b6100b260048036038101906100ad9190610cea565b61021c565b6040516100c4969594939291906111e5565b60405180910390f35b6100e760048036038101906100e29190610cea565b610368565b6040516100f491906111c3565b60405180910390f35b61010561072d565b60405161011291906111a8565b60405180910390f35b61013560048036038101906101309190610e1d565b610751565b005b610151600480360381019061014c9190610d13565b6108fc565b005b6002602052816000526040600020818154811061016f57600080fd5b9060005260206000209060050201600091509150508060000154908060040180546101999061144e565b80601f01602080910402602001604051908101604052809291908181526020018280546101c59061144e565b80156102125780601f106101e757610100808354040283529160200191610212565b820191906000526020600020905b8154815290600101906020018083116101f557829003601f168201915b5050505050905082565b600160205280600052604060002060009150905080600001805461023f9061144e565b80601f016020809104026020016040519081016040528092919081815260200182805461026b9061144e565b80156102b85780601f1061028d576101008083540402835291602001916102b8565b820191906000526020600020905b81548152906001019060200180831161029b57829003601f168201915b5050505050908060010154908060020154908060030154908060040154908060050180546102e59061144e565b80601f01602080910402602001604051908101604052809291908181526020018280546103119061144e565b801561035e5780601f106103335761010080835404028352916020019161035e565b820191906000526020600020905b81548152906001019060200180831161034157829003601f168201915b5050505050905086565b6060600260008373ffffffffffffffffffffffffffffffffffffffff1673ffffffffffffffffffffffffffffffffffffffff168152602001908152602001600020805480602002602001604051908101604052809291908181526020016000905b8282101561072257838290600052602060002090600502016040518060a00160405290816000820154815260200160018201805480602002602001604051908101604052809291908181526020016000905b828210156104c757838290600052602060002001805461043a9061144e565b80601f01602080910402602001604051908101604052809291908181526020018280546104669061144e565b80156104b35780601f10610488576101008083540402835291602001916104b3565b820191906000526020600020905b81548152906001019060200180831161049657829003601f168201915b50505050508152602001906001019061041b565b50505050815260200160028201805480602002602001604051908101604052809291908181526020016000905b828210156105a05783829060005260206000200180546105139061144e565b80601f016020809104026020016040519081016040528092919081815260200182805461053f9061144e565b801561058c5780601f106105615761010080835404028352916020019161058c565b820191906000526020600020905b81548152906001019060200180831161056f57829003601f168201915b5050505050815260200190600101906104f4565b50505050815260200160038201805480602002602001604051908101604052809291908181526020016000905b828210156106795783829060005260206000200180546105ec9061144e565b80601f01602080910402602001604051908101604052809291908181526020018280546106189061144e565b80156106655780601f1061063a57610100808354040283529160200191610665565b820191906000526020600020905b81548152906001019060200180831161064857829003601f168201915b5050505050815260200190600101906105cd565b5050505081526020016004820180546106919061144e565b80601f01602080910402602001604051908101604052809291908181526020018280546106bd9061144e565b801561070a5780601f106106df5761010080835404028352916020019161070a565b820191906000526020600020905b8154815290600101906020018083116106ed57829003601f168201915b505050505081525050815260200190600101906103c9565b505050509050919050565b60008054906101000a900473ffffffffffffffffffffffffffffffffffffffff1681565b60008054906101000a900473ffffffffffffffffffffffffffffffffffffffff1673ffffffffffffffffffffffffffffffffffffffff163373ffffffffffffffffffffffffffffffffffffffff16146107df576040517f08c379a00000000000000000000000000000000000000000000000000000000081526004016107d690611254565b60405180910390fd5b60006040518060a00160405280878152602001868152602001858152602001848152602001838152509050600260008873ffffffffffffffffffffffffffffffffffffffff1673ffffffffffffffffffffffffffffffffffffffff168152602001908152602001600020819080600181540180825580915050600190039060005260206000209060050201600090919091909150600082015181600001556020820151816001019080519060200190610899929190610a6a565b5060408201518160020190805190602001906108b6929190610a6a565b5060608201518160030190805190602001906108d3929190610a6a565b5060808201518160040190805190602001906108f0929190610aca565b50505050505050505050565b60008054906101000a900473ffffffffffffffffffffffffffffffffffffffff1673ffffffffffffffffffffffffffffffffffffffff163373ffffffffffffffffffffffffffffffffffffffff161461098a576040517f08c379a000000000000000000000000000000000000000000000000000000000815260040161098190611254565b60405180910390fd5b60006040518060c0016040528088815260200187815260200186815260200185815260200184815260200183815250905080600160008a73ffffffffffffffffffffffffffffffffffffffff1673ffffffffffffffffffffffffffffffffffffffff1681526020019081526020016000206000820151816000019080519060200190610a17929190610aca565b506020820151816001015560408201518160020155606082015181600301556080820151816004015560a0820151816005019080519060200190610a5c929190610aca565b509050505050505050505050565b828054828255906000526020600020908101928215610ab9579160200282015b82811115610ab8578251829080519060200190610aa8929190610aca565b5091602001919060010190610a8a565b5b509050610ac69190610b50565b5090565b828054610ad69061144e565b90600052602060002090601f016020900481019282610af85760008555610b3f565b82601f10610b1157805160ff1916838001178555610b3f565b82800160010185558215610b3f579182015b82811115610b3e578251825591602001919060010190610b23565b5b509050610b4c9190610b74565b5090565b5b80821115610b705760008181610b679190610b91565b50600101610b51565b5090565b5b80821115610b8d576000816000905550600101610b75565b5090565b508054610b9d9061144e565b6000825580601f10610baf5750610bce565b601f016020900490600052602060002090810190610bcd9190610b74565b5b50565b6000610be4610bdf846112d5565b6112a4565b9050808382526020820190508260005b85811015610c245781358501610c0a8882610cab565b845260208401935060208301925050600181019050610bf4565b5050509392505050565b6000610c41610c3c84611301565b6112a4565b905082815260208101848484011115610c5957600080fd5b610c6484828561140c565b509392505050565b600081359050610c7b816114ef565b92915050565b600082601f830112610c9257600080fd5b8135610ca2848260208601610bd1565b91505092915050565b600082601f830112610cbc57600080fd5b8135610ccc848260208601610c2e565b91505092915050565b600081359050610ce481611506565b92915050565b600060208284031215610cfc57600080fd5b6000610d0a84828501610c6c565b91505092915050565b600080600080600080600060e0888a031215610d2e57600080fd5b6000610d3c8a828b01610c6c565b975050602088013567ffffffffffffffff811115610d5957600080fd5b610d658a828b01610cab565b9650506040610d768a828b01610cd5565b9550506060610d878a828b01610cd5565b9450506080610d988a828b01610cd5565b93505060a0610da98a828b01610cd5565b92505060c088013567ffffffffffffffff811115610dc657600080fd5b610dd28a828b01610cab565b91505092959891949750929550565b60008060408385031215610df457600080fd5b6000610e0285828601610c6c565b9250506020610e1385828601610cd5565b9150509250929050565b60008060008060008060c08789031215610e3657600080fd5b6000610e4489828a01610c6c565b9650506020610e5589828a01610cd5565b955050604087013567ffffffffffffffff811115610e7257600080fd5b610e7e89828a01610c81565b945050606087013567ffffffffffffffff811115610e9b57600080fd5b610ea789828a01610c81565b935050608087013567ffffffffffffffff811115610ec457600080fd5b610ed089828a01610c81565b92505060a087013567ffffffffffffffff811115610eed57600080fd5b610ef989828a01610cab565b9150509295509295509295565b6000610f128383611027565b905092915050565b6000610f2683836110ff565b905092915050565b610f37816113d0565b82525050565b6000610f4882611351565b610f52818561138c565b935083602082028501610f6485611331565b8060005b85811015610fa05784840389528151610f818582610f06565b9450610f8c83611372565b925060208a01995050600181019050610f68565b50829750879550505050505092915050565b6000610fbd8261135c565b610fc7818561139d565b935083602082028501610fd985611341565b8060005b858110156110155784840389528151610ff68582610f1a565b94506110018361137f565b925060208a01995050600181019050610fdd565b50829750879550505050505092915050565b600061103282611367565b61103c81856113ae565b935061104c81856020860161141b565b611055816114de565b840191505092915050565b600061106b82611367565b61107581856113bf565b935061108581856020860161141b565b61108e816114de565b840191505092915050565b60006110a6602e836113bf565b91507f4f6e6c792074686520636f6e7472616374206f776e65722063616e2063616c6c60008301527f20746869732066756e6374696f6e0000000000000000000000000000000000006020830152604082019050919050565b600060a083016000830151611117600086018261118a565b506020830151848203602086015261112f8282610f3d565b915050604083015184820360408601526111498282610f3d565b915050606083015184820360608601526111638282610f3d565b9150506080830151848203608086015261117d8282611027565b9150508091505092915050565b61119381611402565b82525050565b6111a281611402565b82525050565b60006020820190506111bd6000830184610f2e565b92915050565b600060208201905081810360008301526111dd8184610fb2565b905092915050565b600060c08201905081810360008301526111ff8189611060565b905061120e6020830188611199565b61121b6040830187611199565b6112286060830186611199565b6112356080830185611199565b81810360a08301526112478184611060565b9050979650505050505050565b6000602082019050818103600083015261126d81611099565b9050919050565b60006040820190506112896000830185611199565b818103602083015261129b8184611060565b90509392505050565b6000604051905081810181811067ffffffffffffffff821117156112cb576112ca6114af565b5b8060405250919050565b600067ffffffffffffffff8211156112f0576112ef6114af565b5b602082029050602081019050919050565b600067ffffffffffffffff82111561131c5761131b6114af565b5b601f19601f8301169050602081019050919050565b6000819050602082019050919050565b6000819050602082019050919050565b600081519050919050565b600081519050919050565b600081519050919050565b6000602082019050919050565b6000602082019050919050565b600082825260208201905092915050565b600082825260208201905092915050565b600082825260208201905092915050565b600082825260208201905092915050565b60006113db826113e2565b9050919050565b600073ffffffffffffffffffffffffffffffffffffffff82169050919050565b6000819050919050565b82818337600083830152505050565b60005b8381101561143957808201518184015260208101905061141e565b83811115611448576000848401525b50505050565b6000600282049050600182168061146657607f821691505b6020821081141561147a57611479611480565b5b50919050565b7f4e487b7100000000000000000000000000000000000000000000000000000000600052602260045260246000fd5b7f4e487b7100000000000000000000000000000000000000000000000000000000600052604160045260246000fd5b6000601f19601f8301169050919050565b6114f8816113d0565b811461150357600080fd5b50565b61150f81611402565b811461151a57600080fd5b5056fea2646970667358221220407a10c682680f6ec9a6913507f2e568418f07112f5f8d9a07c46176338f43a464736f6c63430008000033",
  "immutableReferences": {},
  "source": "// SPDX-License-Identifier: MIT\r\npragma solidity ^0.8.0;\r\n\r\ncontract BcareContract {\r\n    address public owner;\r\n\r\n    // Struct to store patient information\r\n    struct PatientInfo {\r\n        string cancerType;\r\n        uint256 cancerStage;\r\n        uint256 age;\r\n        uint256 weight;\r\n        uint256 height;\r\n        string gender;\r\n    }\r\n\r\n    // Struct to store appointment information\r\n    struct Appointment {\r\n        uint256 appointmentDate;\r\n        string[] prescribedMedicines;\r\n        string[] processes;\r\n        string[] examsAndAnalysis;\r\n        string medRecommendations;\r\n    }\r\n\r\n    // Constructor to set the contract owner\r\n    constructor() {\r\n        owner = msg.sender;\r\n    }\r\n\r\n    // Mapping to associate patient addresses with their PatientInfo\r\n    mapping(address => PatientInfo) public patientInfo;\r\n\r\n    // Mapping to associate patient addresses with lists of appointments\r\n    mapping(address => Appointment[]) public appointments;\r\n\r\n    // Modifier to restrict access to doctors only\r\n    modifier onlyDoctor() {\r\n        require(\r\n            msg.sender == owner,\r\n            \"Only the contract owner can call this function\"\r\n        );\r\n        _;\r\n    }\r\n\r\n    // Function to add or update patient information (for doctors)\r\n    function addOrUpdatePatientInfo(\r\n        address patientAddress,\r\n        string memory _cancerType,\r\n        uint256 _cancerStage,\r\n        uint256 _age,\r\n        uint256 _weight,\r\n        uint256 _height,\r\n        string memory _gender\r\n    ) public onlyDoctor {\r\n        // Create a new PatientInfo struct with the provided information\r\n        PatientInfo memory newPatientInfo = PatientInfo({\r\n            cancerType: _cancerType,\r\n            cancerStage: _cancerStage,\r\n            age: _age,\r\n            weight: _weight,\r\n            height: _height,\r\n            gender: _gender\r\n        });\r\n\r\n        // Store the patient information using the provided patient address as the key\r\n        patientInfo[patientAddress] = newPatientInfo;\r\n    }\r\n\r\n    // Function to schedule an appointment (for doctors)\r\n    function scheduleAppointment(\r\n        address patientAddress,\r\n        uint256 _appointmentDate,\r\n        string[] memory _prescribedMedicines,\r\n        string[] memory _processes,\r\n        string[] memory _examsAndAnalysis,\r\n        string memory _medRecommendations\r\n    ) public onlyDoctor {\r\n        // Create a new Appointment struct for the appointment\r\n        Appointment memory newAppointment = Appointment({\r\n            appointmentDate: _appointmentDate,\r\n            prescribedMedicines: _prescribedMedicines,\r\n            processes: _processes,\r\n            examsAndAnalysis: _examsAndAnalysis,\r\n            medRecommendations: _medRecommendations\r\n        });\r\n\r\n        // Add the appointment to the patient's list of appointments\r\n        appointments[patientAddress].push(newAppointment);\r\n    }\r\n\r\n    // Function to retrieve a patient's appointments\r\n    function getAppointments(\r\n        address patientAddress\r\n    ) public view returns (Appointment[] memory) {\r\n        return appointments[patientAddress];\r\n    }\r\n}\r\n",
  "sourcePath": "C:\\Users\\yotur\\Documentos\\DApps\\BCareBack\\contracts\\bcareContract.sol",
  "compiler": {
    "name": "solc",
    "version": "0.8.0+commit.c7dfd78e.Emscripten.clang"
  },
  "schemaVersion": "3.4.15",
  "updatedAt": "2023-09-20T02:59:39.276Z",
  "networkType": "ethereum",
  "devdoc": {
    "kind": "dev",
    "methods": {},
    "version": 1
  },
  "userdoc": {
    "kind": "user",
    "methods": {},
    "version": 1
  }
}